{
    "_format": "hh-sol-artifact-1",
    "contractName": "CreatorSubscriptionManager",
    "sourceName": "contracts/CreatorSubscriptionManager.sol",
    "abi": [
        {
            "inputs": [],
            "name": "EnforcedPause",
            "type": "error"
        },
        {
            "inputs": [],
            "name": "ExpectedPause",
            "type": "error"
        },
        {
            "inputs": [],
            "name": "InvalidInitialization",
            "type": "error"
        },
        {
            "inputs": [],
            "name": "NotInitializing",
            "type": "error"
        },
        {
            "inputs": [
                {
                    "internalType": "address",
                    "name": "owner",
                    "type": "address"
                }
            ],
            "name": "OwnableInvalidOwner",
            "type": "error"
        },
        {
            "inputs": [
                {
                    "internalType": "address",
                    "name": "account",
                    "type": "address"
                }
            ],
            "name": "OwnableUnauthorizedAccount",
            "type": "error"
        },
        {
            "anonymous": false,
            "inputs": [
                {
                    "indexed": false,
                    "internalType": "address",
                    "name": "creator",
                    "type": "address"
                },
                {
                    "indexed": false,
                    "internalType": "uint256",
                    "name": "amount",
                    "type": "uint256"
                }
            ],
            "name": "CreatorWithdraw",
            "type": "event"
        },
        {
            "anonymous": false,
            "inputs": [
                {
                    "indexed": false,
                    "internalType": "uint64",
                    "name": "version",
                    "type": "uint64"
                }
            ],
            "name": "Initialized",
            "type": "event"
        },
        {
            "anonymous": false,
            "inputs": [
                {
                    "indexed": true,
                    "internalType": "address",
                    "name": "previousOwner",
                    "type": "address"
                },
                {
                    "indexed": true,
                    "internalType": "address",
                    "name": "newOwner",
                    "type": "address"
                }
            ],
            "name": "OwnershipTransferred",
            "type": "event"
        },
        {
            "anonymous": false,
            "inputs": [
                {
                    "indexed": false,
                    "internalType": "address",
                    "name": "account",
                    "type": "address"
                }
            ],
            "name": "Paused",
            "type": "event"
        },
        {
            "anonymous": false,
            "inputs": [
                {
                    "indexed": false,
                    "internalType": "address",
                    "name": "creator",
                    "type": "address"
                },
                {
                    "indexed": false,
                    "internalType": "address",
                    "name": "subscriber",
                    "type": "address"
                },
                {
                    "indexed": false,
                    "internalType": "uint256",
                    "name": "tierId",
                    "type": "uint256"
                }
            ],
            "name": "SubscriptionPurchased",
            "type": "event"
        },
        {
            "anonymous": false,
            "inputs": [
                {
                    "indexed": false,
                    "internalType": "address",
                    "name": "creator",
                    "type": "address"
                },
                {
                    "indexed": false,
                    "internalType": "address",
                    "name": "subscriber",
                    "type": "address"
                },
                {
                    "indexed": false,
                    "internalType": "uint256",
                    "name": "tierId",
                    "type": "uint256"
                }
            ],
            "name": "SubscriptionRenewed",
            "type": "event"
        },
        {
            "anonymous": false,
            "inputs": [
                {
                    "indexed": false,
                    "internalType": "address",
                    "name": "creator",
                    "type": "address"
                },
                {
                    "indexed": false,
                    "internalType": "uint256",
                    "name": "tierId",
                    "type": "uint256"
                },
                {
                    "indexed": false,
                    "internalType": "uint256",
                    "name": "price",
                    "type": "uint256"
                }
            ],
            "name": "TierCreated",
            "type": "event"
        },
        {
            "anonymous": false,
            "inputs": [
                {
                    "indexed": false,
                    "internalType": "address",
                    "name": "account",
                    "type": "address"
                }
            ],
            "name": "Unpaused",
            "type": "event"
        },
        {
            "inputs": [
                {
                    "internalType": "uint256",
                    "name": "price",
                    "type": "uint256"
                },
                {
                    "internalType": "string",
                    "name": "metadata",
                    "type": "string"
                }
            ],
            "name": "createSubscriptionTier",
            "outputs": [
                {
                    "internalType": "uint256",
                    "name": "",
                    "type": "uint256"
                }
            ],
            "stateMutability": "nonpayable",
            "type": "function"
        },
        {
            "inputs": [
                {
                    "internalType": "address",
                    "name": "",
                    "type": "address"
                }
            ],
            "name": "creatorEarnings",
            "outputs": [
                {
                    "internalType": "uint256",
                    "name": "",
                    "type": "uint256"
                }
            ],
            "stateMutability": "view",
            "type": "function"
        },
        {
            "inputs": [
                {
                    "internalType": "address",
                    "name": "",
                    "type": "address"
                },
                {
                    "internalType": "uint256",
                    "name": "",
                    "type": "uint256"
                }
            ],
            "name": "creatorTiers",
            "outputs": [
                {
                    "internalType": "uint256",
                    "name": "price",
                    "type": "uint256"
                },
                {
                    "internalType": "string",
                    "name": "metadata",
                    "type": "string"
                },
                {
                    "internalType": "bool",
                    "name": "active",
                    "type": "bool"
                }
            ],
            "stateMutability": "view",
            "type": "function"
        },
        {
            "inputs": [
                {
                    "internalType": "address",
                    "name": "initialOwner",
                    "type": "address"
                }
            ],
            "name": "initialize",
            "outputs": [],
            "stateMutability": "nonpayable",
            "type": "function"
        },
        {
            "inputs": [],
            "name": "owner",
            "outputs": [
                {
                    "internalType": "address",
                    "name": "",
                    "type": "address"
                }
            ],
            "stateMutability": "view",
            "type": "function"
        },
        {
            "inputs": [],
            "name": "pause",
            "outputs": [],
            "stateMutability": "nonpayable",
            "type": "function"
        },
        {
            "inputs": [],
            "name": "paused",
            "outputs": [
                {
                    "internalType": "bool",
                    "name": "",
                    "type": "bool"
                }
            ],
            "stateMutability": "view",
            "type": "function"
        },
        {
            "inputs": [
                {
                    "internalType": "address",
                    "name": "creator",
                    "type": "address"
                },
                {
                    "internalType": "uint256",
                    "name": "tierId",
                    "type": "uint256"
                }
            ],
            "name": "purchaseSubscription",
            "outputs": [],
            "stateMutability": "payable",
            "type": "function"
        },
        {
            "inputs": [],
            "name": "renounceOwnership",
            "outputs": [],
            "stateMutability": "nonpayable",
            "type": "function"
        },
        {
            "inputs": [
                {
                    "internalType": "address",
                    "name": "",
                    "type": "address"
                },
                {
                    "internalType": "address",
                    "name": "",
                    "type": "address"
                }
            ],
            "name": "subscriptions",
            "outputs": [
                {
                    "internalType": "address",
                    "name": "subscriber",
                    "type": "address"
                },
                {
                    "internalType": "uint256",
                    "name": "tierId",
                    "type": "uint256"
                },
                {
                    "internalType": "uint256",
                    "name": "startTime",
                    "type": "uint256"
                },
                {
                    "internalType": "uint256",
                    "name": "expirationTime",
                    "type": "uint256"
                }
            ],
            "stateMutability": "view",
            "type": "function"
        },
        {
            "inputs": [
                {
                    "internalType": "address",
                    "name": "newOwner",
                    "type": "address"
                }
            ],
            "name": "transferOwnership",
            "outputs": [],
            "stateMutability": "nonpayable",
            "type": "function"
        },
        {
            "inputs": [],
            "name": "unpause",
            "outputs": [],
            "stateMutability": "nonpayable",
            "type": "function"
        },
        {
            "inputs": [],
            "name": "withdrawEarnings",
            "outputs": [],
            "stateMutability": "nonpayable",
            "type": "function"
        }
    ],
    "bytecode": "0x608060405234801561001057600080fd5b50610f2d806100206000396000f3fe6080604052600436106100c25760003560e01c8063b0d93c461161007f578063c4d66de811610059578063c4d66de814610277578063e9456f3014610297578063f2fde38b146102aa578063fa3c30a8146102ca57600080fd5b8063b0d93c4614610205578063b73c6ce914610233578063ba6682b01461024857600080fd5b80633f4ba83a146100c75780635c975abb146100de5780636207d31b14610113578063715018a6146101945780638456cb59146101a95780638da5cb5b146101be575b600080fd5b3480156100d357600080fd5b506100dc6102f7565b005b3480156100ea57600080fd5b50600080516020610ed88339815191525460ff1660405190151581526020015b60405180910390f35b34801561011f57600080fd5b5061016a61012e366004610b91565b6001602081815260009384526040808520909152918352912080549181015460028201546003909201546001600160a01b039093169290919084565b604080516001600160a01b039095168552602085019390935291830152606082015260800161010a565b3480156101a057600080fd5b506100dc610309565b3480156101b557600080fd5b506100dc61031b565b3480156101ca57600080fd5b507f9016d09d72d40fdae2fd8ceac6b6234c7706214fd39c1cd1e609a0528c199300546040516001600160a01b03909116815260200161010a565b34801561021157600080fd5b50610225610220366004610bda565b61032b565b60405190815260200161010a565b34801561023f57600080fd5b506100dc610428565b34801561025457600080fd5b50610268610263366004610c95565b6104f1565b60405161010a93929190610cbf565b34801561028357600080fd5b506100dc610292366004610d1e565b6105c3565b6100dc6102a5366004610c95565b6106db565b3480156102b657600080fd5b506100dc6102c5366004610d1e565b6108d4565b3480156102d657600080fd5b506102256102e5366004610d1e565b60026020526000908152604090205481565b6102ff610912565b61030761096d565b565b610311610912565b61030760006109c7565b610323610912565b610307610a38565b6040805160608101825283815260208082018481526001838501819052336000908152808452948520805480830182559086529285208451600390940201928355905183929182019061037e9082610dc5565b50604091820151600291909101805460ff1916911515919091179055336000818152602081905291909120547f3e369a855aa1bcfc783502f417ac0526cc5ab86a6fda978d7f79418deca6d39391906103d990600190610e9b565b604080516001600160a01b0390931683526020830191909152810186905260600160405180910390a13360009081526020819052604090205461041e90600190610e9b565b9150505b92915050565b33600090815260026020526040902054806104785760405162461bcd60e51b815260206004820152600b60248201526a4e6f206561726e696e677360a81b60448201526064015b60405180910390fd5b336000818152600260205260408082208290555183156108fc0291849190818181858888f193505050501580156104b3573d6000803e3d6000fd5b5060408051338152602081018390527f957727802c31109adcff14fcfbd2dc576e9bfd4d6385ddd160fe42832a4555fe91015b60405180910390a150565b6000602052816000526040600020818154811061050d57600080fd5b90600052602060002090600302016000915091505080600001549080600101805461053790610d40565b80601f016020809104026020016040519081016040528092919081815260200182805461056390610d40565b80156105b05780601f10610585576101008083540402835291602001916105b0565b820191906000526020600020905b81548152906001019060200180831161059357829003601f168201915b5050506002909301549192505060ff1683565b7ff0c57e16840df040f15088dc2f81fe391c3923bec73e23a9662efc9c229c6a008054600160401b810460ff16159067ffffffffffffffff166000811580156106095750825b905060008267ffffffffffffffff1660011480156106265750303b155b905081158015610634575080155b156106525760405163f92ee8a960e01b815260040160405180910390fd5b845467ffffffffffffffff19166001178555831561067c57845460ff60401b1916600160401b1785555b61068586610a81565b61068d610a92565b83156106d357845460ff60401b19168555604051600181527fc7f505b2f371ae2175ee4913f4499e1f2633a7b5936321eed1cdaeb6115181d29060200160405180910390a15b505050505050565b6106e3610aa2565b6001600160a01b03821660009081526020819052604090205481106107395760405162461bcd60e51b815260206004820152600c60248201526b24b73b30b634b2103a34b2b960a11b604482015260640161046f565b6001600160a01b038216600090815260208190526040812080548390811061076357610763610eae565b60009182526020909120600390910201600281015490915060ff166107bc5760405162461bcd60e51b815260206004820152600f60248201526e54696572206e6f742061637469766560881b604482015260640161046f565b80543410156108045760405162461bcd60e51b8152602060048201526014602482015273125b9cdd59999a58da595b9d081c185e5b595b9d60621b604482015260640161046f565b6001600160a01b038316600090815260016020818152604080842033808652925290922080546001600160a01b0319169092178255810183905542600282018190556108539062278d00610ec4565b60038201556001600160a01b03841660009081526002602052604081208054349290610880908490610ec4565b9091555050604080516001600160a01b03861681523360208201529081018490527fbc47357bedfb069445d0f6e8f6ce0b1676fde6983eadc1e76ae54145ec901d469060600160405180910390a150505050565b6108dc610912565b6001600160a01b03811661090657604051631e4fbdf760e01b81526000600482015260240161046f565b61090f816109c7565b50565b336109447f9016d09d72d40fdae2fd8ceac6b6234c7706214fd39c1cd1e609a0528c199300546001600160a01b031690565b6001600160a01b0316146103075760405163118cdaa760e01b815233600482015260240161046f565b610975610ad3565b600080516020610ed8833981519152805460ff191681557f5db9ee0a495bf2e6ff9c91a7834c1ba4fdd244a5e8aa4e537bd38aeae4b073aa335b6040516001600160a01b0390911681526020016104e6565b7f9016d09d72d40fdae2fd8ceac6b6234c7706214fd39c1cd1e609a0528c19930080546001600160a01b031981166001600160a01b03848116918217845560405192169182907f8be0079c531659141344cd1fd0a4f28419497f9722a3daafe3b4186f6b6457e090600090a3505050565b610a40610aa2565b600080516020610ed8833981519152805460ff191660011781557f62e78cea01bee320cd4e420270b5ea74000d11b0c9f74754ebdbfc544b05a258336109af565b610a89610b03565b61090f81610b4c565b610a9a610b03565b610307610b54565b600080516020610ed88339815191525460ff16156103075760405163d93c066560e01b815260040160405180910390fd5b600080516020610ed88339815191525460ff1661030757604051638dfc202b60e01b815260040160405180910390fd5b7ff0c57e16840df040f15088dc2f81fe391c3923bec73e23a9662efc9c229c6a0054600160401b900460ff1661030757604051631afcd79f60e31b815260040160405180910390fd5b6108dc610b03565b610b5c610b03565b600080516020610ed8833981519152805460ff19169055565b80356001600160a01b0381168114610b8c57600080fd5b919050565b60008060408385031215610ba457600080fd5b610bad83610b75565b9150610bbb60208401610b75565b90509250929050565b634e487b7160e01b600052604160045260246000fd5b60008060408385031215610bed57600080fd5b82359150602083013567ffffffffffffffff80821115610c0c57600080fd5b818501915085601f830112610c2057600080fd5b813581811115610c3257610c32610bc4565b604051601f8201601f19908116603f01168101908382118183101715610c5a57610c5a610bc4565b81604052828152886020848701011115610c7357600080fd5b8260208601602083013760006020848301015280955050505050509250929050565b60008060408385031215610ca857600080fd5b610cb183610b75565b946020939093013593505050565b83815260006020606081840152845180606085015260005b81811015610cf357868101830151858201608001528201610cd7565b506000608082860101526080601f19601f830116850101925050508215156040830152949350505050565b600060208284031215610d3057600080fd5b610d3982610b75565b9392505050565b600181811c90821680610d5457607f821691505b602082108103610d7457634e487b7160e01b600052602260045260246000fd5b50919050565b601f821115610dc057600081815260208120601f850160051c81016020861015610da15750805b601f850160051c820191505b818110156106d357828155600101610dad565b505050565b815167ffffffffffffffff811115610ddf57610ddf610bc4565b610df381610ded8454610d40565b84610d7a565b602080601f831160018114610e285760008415610e105750858301515b600019600386901b1c1916600185901b1785556106d3565b600085815260208120601f198616915b82811015610e5757888601518255948401946001909101908401610e38565b5085821015610e755787850151600019600388901b60f8161c191681555b5050505050600190811b01905550565b634e487b7160e01b600052601160045260246000fd5b8181038181111561042257610422610e85565b634e487b7160e01b600052603260045260246000fd5b8082018082111561042257610422610e8556fecd5ed15c6e187e77e9aee88184c21f4f2182ab5827cb3b7e07fbedcd63f03300a2646970667358221220b56373365d90ab95d12cb97e704e3c707964608149f1b5c02bad184e24c0f94664736f6c63430008140033",
    "linkReferences": {},
    "deployedLinkReferences": {}
}