{
    "_format": "hh-sol-artifact-1",
    "contractName": "GaslessPaymaster",
    "sourceName": "contracts/GaslessPaymaster.sol",
    "abi": [
        {
            "inputs": [],
            "name": "ECDSAInvalidSignature",
            "type": "error"
        },
        {
            "inputs": [
                {
                    "internalType": "uint256",
                    "name": "length",
                    "type": "uint256"
                }
            ],
            "name": "ECDSAInvalidSignatureLength",
            "type": "error"
        },
        {
            "inputs": [
                {
                    "internalType": "bytes32",
                    "name": "s",
                    "type": "bytes32"
                }
            ],
            "name": "ECDSAInvalidSignatureS",
            "type": "error"
        },
        {
            "inputs": [],
            "name": "InvalidInitialization",
            "type": "error"
        },
        {
            "inputs": [],
            "name": "NotInitializing",
            "type": "error"
        },
        {
            "inputs": [
                {
                    "internalType": "address",
                    "name": "owner",
                    "type": "address"
                }
            ],
            "name": "OwnableInvalidOwner",
            "type": "error"
        },
        {
            "inputs": [
                {
                    "internalType": "address",
                    "name": "account",
                    "type": "address"
                }
            ],
            "name": "OwnableUnauthorizedAccount",
            "type": "error"
        },
        {
            "anonymous": false,
            "inputs": [
                {
                    "indexed": false,
                    "internalType": "uint64",
                    "name": "version",
                    "type": "uint64"
                }
            ],
            "name": "Initialized",
            "type": "event"
        },
        {
            "anonymous": false,
            "inputs": [
                {
                    "indexed": true,
                    "internalType": "address",
                    "name": "previousOwner",
                    "type": "address"
                },
                {
                    "indexed": true,
                    "internalType": "address",
                    "name": "newOwner",
                    "type": "address"
                }
            ],
            "name": "OwnershipTransferred",
            "type": "event"
        },
        {
            "anonymous": false,
            "inputs": [
                {
                    "indexed": true,
                    "internalType": "bytes32",
                    "name": "txHash",
                    "type": "bytes32"
                },
                {
                    "indexed": false,
                    "internalType": "bool",
                    "name": "success",
                    "type": "bool"
                }
            ],
            "name": "PostRelayed",
            "type": "event"
        },
        {
            "anonymous": false,
            "inputs": [
                {
                    "indexed": true,
                    "internalType": "bytes32",
                    "name": "txHash",
                    "type": "bytes32"
                }
            ],
            "name": "PreRelayed",
            "type": "event"
        },
        {
            "inputs": [],
            "name": "getGasAndDataLimits",
            "outputs": [
                {
                    "components": [
                        {
                            "internalType": "uint256",
                            "name": "acceptanceBudget",
                            "type": "uint256"
                        },
                        {
                            "internalType": "uint256",
                            "name": "preRelayedCallGasLimit",
                            "type": "uint256"
                        },
                        {
                            "internalType": "uint256",
                            "name": "postRelayedCallGasLimit",
                            "type": "uint256"
                        },
                        {
                            "internalType": "uint256",
                            "name": "calldataSizeLimit",
                            "type": "uint256"
                        }
                    ],
                    "internalType": "struct IPaymaster.GasAndDataLimits",
                    "name": "limits",
                    "type": "tuple"
                }
            ],
            "stateMutability": "pure",
            "type": "function"
        },
        {
            "inputs": [],
            "name": "getRelayHub",
            "outputs": [
                {
                    "internalType": "address",
                    "name": "",
                    "type": "address"
                }
            ],
            "stateMutability": "view",
            "type": "function"
        },
        {
            "inputs": [],
            "name": "getTrustedForwarder",
            "outputs": [
                {
                    "internalType": "address",
                    "name": "",
                    "type": "address"
                }
            ],
            "stateMutability": "view",
            "type": "function"
        },
        {
            "inputs": [
                {
                    "internalType": "address",
                    "name": "initialOwner",
                    "type": "address"
                }
            ],
            "name": "initialize",
            "outputs": [],
            "stateMutability": "nonpayable",
            "type": "function"
        },
        {
            "inputs": [],
            "name": "owner",
            "outputs": [
                {
                    "internalType": "address",
                    "name": "",
                    "type": "address"
                }
            ],
            "stateMutability": "view",
            "type": "function"
        },
        {
            "inputs": [
                {
                    "internalType": "bytes",
                    "name": "context",
                    "type": "bytes"
                },
                {
                    "internalType": "bool",
                    "name": "success",
                    "type": "bool"
                },
                {
                    "internalType": "uint256",
                    "name": "gasUseWithoutPost",
                    "type": "uint256"
                },
                {
                    "components": [
                        {
                            "internalType": "uint256",
                            "name": "maxFeePerGas",
                            "type": "uint256"
                        },
                        {
                            "internalType": "uint256",
                            "name": "maxPriorityFeePerGas",
                            "type": "uint256"
                        },
                        {
                            "internalType": "uint256",
                            "name": "transactionCalldataGasUsed",
                            "type": "uint256"
                        },
                        {
                            "internalType": "address",
                            "name": "relayWorker",
                            "type": "address"
                        },
                        {
                            "internalType": "address",
                            "name": "paymaster",
                            "type": "address"
                        },
                        {
                            "internalType": "address",
                            "name": "forwarder",
                            "type": "address"
                        },
                        {
                            "internalType": "bytes",
                            "name": "paymasterData",
                            "type": "bytes"
                        },
                        {
                            "internalType": "uint256",
                            "name": "clientId",
                            "type": "uint256"
                        }
                    ],
                    "internalType": "struct GsnTypes.RelayData",
                    "name": "relayData",
                    "type": "tuple"
                }
            ],
            "name": "postRelayedCall",
            "outputs": [],
            "stateMutability": "nonpayable",
            "type": "function"
        },
        {
            "inputs": [
                {
                    "components": [
                        {
                            "components": [
                                {
                                    "internalType": "address",
                                    "name": "from",
                                    "type": "address"
                                },
                                {
                                    "internalType": "address",
                                    "name": "to",
                                    "type": "address"
                                },
                                {
                                    "internalType": "uint256",
                                    "name": "value",
                                    "type": "uint256"
                                },
                                {
                                    "internalType": "uint256",
                                    "name": "gas",
                                    "type": "uint256"
                                },
                                {
                                    "internalType": "uint256",
                                    "name": "nonce",
                                    "type": "uint256"
                                },
                                {
                                    "internalType": "bytes",
                                    "name": "data",
                                    "type": "bytes"
                                },
                                {
                                    "internalType": "uint256",
                                    "name": "validUntilTime",
                                    "type": "uint256"
                                }
                            ],
                            "internalType": "struct IForwarder.ForwardRequest",
                            "name": "request",
                            "type": "tuple"
                        },
                        {
                            "components": [
                                {
                                    "internalType": "uint256",
                                    "name": "maxFeePerGas",
                                    "type": "uint256"
                                },
                                {
                                    "internalType": "uint256",
                                    "name": "maxPriorityFeePerGas",
                                    "type": "uint256"
                                },
                                {
                                    "internalType": "uint256",
                                    "name": "transactionCalldataGasUsed",
                                    "type": "uint256"
                                },
                                {
                                    "internalType": "address",
                                    "name": "relayWorker",
                                    "type": "address"
                                },
                                {
                                    "internalType": "address",
                                    "name": "paymaster",
                                    "type": "address"
                                },
                                {
                                    "internalType": "address",
                                    "name": "forwarder",
                                    "type": "address"
                                },
                                {
                                    "internalType": "bytes",
                                    "name": "paymasterData",
                                    "type": "bytes"
                                },
                                {
                                    "internalType": "uint256",
                                    "name": "clientId",
                                    "type": "uint256"
                                }
                            ],
                            "internalType": "struct GsnTypes.RelayData",
                            "name": "relayData",
                            "type": "tuple"
                        }
                    ],
                    "internalType": "struct GsnTypes.RelayRequest",
                    "name": "relayRequest",
                    "type": "tuple"
                },
                {
                    "internalType": "bytes",
                    "name": "signature",
                    "type": "bytes"
                },
                {
                    "internalType": "bytes",
                    "name": "approvalData",
                    "type": "bytes"
                },
                {
                    "internalType": "uint256",
                    "name": "maxPossibleGas",
                    "type": "uint256"
                }
            ],
            "name": "preRelayedCall",
            "outputs": [
                {
                    "internalType": "bytes",
                    "name": "context",
                    "type": "bytes"
                },
                {
                    "internalType": "bool",
                    "name": "rejectOnRecipientRevert",
                    "type": "bool"
                }
            ],
            "stateMutability": "nonpayable",
            "type": "function"
        },
        {
            "inputs": [],
            "name": "renounceOwnership",
            "outputs": [],
            "stateMutability": "nonpayable",
            "type": "function"
        },
        {
            "inputs": [
                {
                    "internalType": "address",
                    "name": "relayHub",
                    "type": "address"
                }
            ],
            "name": "setRelayHub",
            "outputs": [],
            "stateMutability": "nonpayable",
            "type": "function"
        },
        {
            "inputs": [
                {
                    "internalType": "address",
                    "name": "forwarder",
                    "type": "address"
                }
            ],
            "name": "setTrustedForwarder",
            "outputs": [],
            "stateMutability": "nonpayable",
            "type": "function"
        },
        {
            "inputs": [
                {
                    "internalType": "bytes4",
                    "name": "interfaceId",
                    "type": "bytes4"
                }
            ],
            "name": "supportsInterface",
            "outputs": [
                {
                    "internalType": "bool",
                    "name": "",
                    "type": "bool"
                }
            ],
            "stateMutability": "pure",
            "type": "function"
        },
        {
            "inputs": [
                {
                    "internalType": "address",
                    "name": "newOwner",
                    "type": "address"
                }
            ],
            "name": "transferOwnership",
            "outputs": [],
            "stateMutability": "nonpayable",
            "type": "function"
        },
        {
            "inputs": [],
            "name": "versionPaymaster",
            "outputs": [
                {
                    "internalType": "string",
                    "name": "",
                    "type": "string"
                }
            ],
            "stateMutability": "pure",
            "type": "function"
        }
    ],
    "bytecode": "0x608060405234801561001057600080fd5b50610e16806100206000396000f3fe608060405234801561001057600080fd5b50600436106100ce5760003560e01c80638da5cb5b1161008c578063c4d66de811610066578063c4d66de8146101f0578063ce1b815f14610203578063da74222814610214578063f2fde38b1461022757600080fd5b80638da5cb5b14610186578063921276ea1461018e578063b039a88f146101b557600080fd5b8062be5dd4146100d357806301ffc9a7146100fd578063715018a61461013157806376fa01c31461013b5780637bb052641461014e5780637bdf2ec714610161575b600080fd5b6100e66100e136600461099e565b61023a565b6040516100f4929190610a89565b60405180910390f35b61012161010b366004610aad565b6001600160e01b0319166370d596f560e11b1490565b60405190151581526020016100f4565b6101396103b9565b005b610139610149366004610ade565b6103cd565b61013961015c366004610b8f565b610421565b6000546001600160a01b03165b6040516001600160a01b0390911681526020016100f4565b61016e61044b565b60408051808201825260058152640332e302e360dc1b602082015290516100f49190610baa565b6101bd610479565b6040516100f491908151815260208083015190820152604080830151908201526060918201519181019190915260800190565b6101396101fe366004610b8f565b6104d5565b6001546001600160a01b031661016e565b610139610222366004610b8f565b6105e5565b610139610235366004610b8f565b61060f565b6060600080886040516020016102509190610ce4565b60405160208183030381529060405280519060200120905060006102a1827f19457468657265756d205369676e6564204d6573736167653a0a3332000000006000908152601c91909152603c902090565b905060006102e5828b8b8080601f01602080910402602001604051908101604052809392919081815260200183838082843760009201919091525061064d92505050565b90506102ef61044b565b6001600160a01b0316816001600160a01b0316146103605760405162461bcd60e51b815260206004820152602360248201527f4761736c6573735061796d61737465723a20496e76616c6964207369676e617460448201526275726560e81b60648201526084015b60405180910390fd5b60405183907f2cd06c26882ced9f6a6df8af974ccdffe35321b03e8e9a82bb87524ae74b67f290600090a260408051602081018590520160408051601f198184030181529190529b60009b509950505050505050505050565b6103c1610677565b6103cb60006106a9565b565b60006103db85870187610db1565b9050807fa1baf6c71265185fcfcdc29a40863d145b2e6c19d7d5c4da368083a8426d6c8385604051610411911515815260200190565b60405180910390a2505050505050565b610429610677565b600080546001600160a01b0319166001600160a01b0392909216919091179055565b7f9016d09d72d40fdae2fd8ceac6b6234c7706214fd39c1cd1e609a0528c199300546001600160a01b031690565b6104a46040518060800160405280600081526020016000815260200160008152602001600081525090565b6040518060800160405280620186a08152602001620186a08152602001620186a08152602001612904815250905090565b7ff0c57e16840df040f15088dc2f81fe391c3923bec73e23a9662efc9c229c6a008054600160401b810460ff16159067ffffffffffffffff1660008115801561051b5750825b905060008267ffffffffffffffff1660011480156105385750303b155b905081158015610546575080155b156105645760405163f92ee8a960e01b815260040160405180910390fd5b845467ffffffffffffffff19166001178555831561058e57845460ff60401b1916600160401b1785555b6105978661071a565b83156105dd57845460ff60401b19168555604051600181527fc7f505b2f371ae2175ee4913f4499e1f2633a7b5936321eed1cdaeb6115181d29060200160405180910390a15b505050505050565b6105ed610677565b600180546001600160a01b0319166001600160a01b0392909216919091179055565b610617610677565b6001600160a01b03811661064157604051631e4fbdf760e01b815260006004820152602401610357565b61064a816106a9565b50565b60008060008061065d868661072b565b92509250925061066d8282610778565b5090949350505050565b3361068061044b565b6001600160a01b0316146103cb5760405163118cdaa760e01b8152336004820152602401610357565b7f9016d09d72d40fdae2fd8ceac6b6234c7706214fd39c1cd1e609a0528c19930080546001600160a01b031981166001600160a01b03848116918217845560405192169182907f8be0079c531659141344cd1fd0a4f28419497f9722a3daafe3b4186f6b6457e090600090a3505050565b610722610835565b61064a8161087e565b600080600083516041036107655760208401516040850151606086015160001a61075788828585610886565b955095509550505050610771565b50508151600091506002905b9250925092565b600082600381111561078c5761078c610dca565b03610795575050565b60018260038111156107a9576107a9610dca565b036107c75760405163f645eedf60e01b815260040160405180910390fd5b60028260038111156107db576107db610dca565b036107fc5760405163fce698f760e01b815260048101829052602401610357565b600382600381111561081057610810610dca565b03610831576040516335e2f38360e21b815260048101829052602401610357565b5050565b7ff0c57e16840df040f15088dc2f81fe391c3923bec73e23a9662efc9c229c6a0054600160401b900460ff166103cb57604051631afcd79f60e31b815260040160405180910390fd5b610617610835565b600080807f7fffffffffffffffffffffffffffffff5d576e7357a4501ddfe92f46681b20a08411156108c1575060009150600390508261094b565b604080516000808252602082018084528a905260ff891692820192909252606081018790526080810186905260019060a0016020604051602081039080840390855afa158015610915573d6000803e3d6000fd5b5050604051601f1901519150506001600160a01b0381166109415750600092506001915082905061094b565b9250600091508190505b9450945094915050565b60008083601f84011261096757600080fd5b50813567ffffffffffffffff81111561097f57600080fd5b60208301915083602082850101111561099757600080fd5b9250929050565b600080600080600080608087890312156109b757600080fd5b863567ffffffffffffffff808211156109cf57600080fd5b908801906040828b0312156109e357600080fd5b909650602088013590808211156109f957600080fd5b610a058a838b01610955565b90975095506040890135915080821115610a1e57600080fd5b50610a2b89828a01610955565b979a9699509497949695606090950135949350505050565b6000815180845260005b81811015610a6957602081850181015186830182015201610a4d565b506000602082860101526020601f19601f83011685010191505092915050565b604081526000610a9c6040830185610a43565b905082151560208301529392505050565b600060208284031215610abf57600080fd5b81356001600160e01b031981168114610ad757600080fd5b9392505050565b600080600080600060808688031215610af657600080fd5b853567ffffffffffffffff80821115610b0e57600080fd5b610b1a89838a01610955565b9097509550602088013591508115158214610b3457600080fd5b9093506040870135925060608701359080821115610b5157600080fd5b5086016101008189031215610b6557600080fd5b809150509295509295909350565b80356001600160a01b0381168114610b8a57600080fd5b919050565b600060208284031215610ba157600080fd5b610ad782610b73565b602081526000610ad76020830184610a43565b6000808335601e19843603018112610bd457600080fd5b830160208101925035905067ffffffffffffffff811115610bf457600080fd5b80360382131561099757600080fd5b81835281816020850137506000828201602090810191909152601f909101601f19169091010190565b6000823560fe19833603018112610c4257600080fd5b90910192915050565b6000610100823584526020830135602085015260408301356040850152610c7460608401610b73565b6001600160a01b03818116606087015280610c9160808701610b73565b16608087015280610ca460a08701610b73565b1660a08701525050610cb960c0840184610bbd565b8260c0870152610ccc8387018284610c03565b9250505060e083013560e08501528091505092915050565b602081526000823560de19843603018112610cfe57600080fd5b6040602084015283016001600160a01b0380610d1983610b73565b16606085015280610d2c60208401610b73565b16608085015250604081013560a0840152606081013560c0840152608081013560e0840152610d5e60a0820182610bbd565b60e0610100860152610d7561014086018284610c03565b91505060c0820135610120850152610d906020860186610c2c565b848203601f190160408601529150610da88183610c4b565b95945050505050565b600060208284031215610dc357600080fd5b5035919050565b634e487b7160e01b600052602160045260246000fdfea26469706673582212207653f432c459aba9ae1bdf37807bf520f9e1220ede2e4bc2997e55bb973f5cfa64736f6c63430008140033",
    "linkReferences": {},
    "deployedLinkReferences": {}
}